{
  "contractName": "Cheque",
  "abi": [
    {
      "anonymous": false,
      "inputs": [
        {
          "indexed": true,
          "internalType": "uint256",
          "name": "_chequeId",
          "type": "uint256"
        }
      ],
      "name": "chequeCreated",
      "type": "event"
    },
    {
      "anonymous": false,
      "inputs": [
        {
          "indexed": true,
          "internalType": "uint256",
          "name": "_userId",
          "type": "uint256"
        }
      ],
      "name": "userCreated",
      "type": "event"
    },
    {
      "inputs": [],
      "name": "chequeCount",
      "outputs": [
        {
          "internalType": "uint256",
          "name": "",
          "type": "uint256"
        }
      ],
      "stateMutability": "view",
      "type": "function",
      "constant": true
    },
    {
      "inputs": [
        {
          "internalType": "uint256",
          "name": "",
          "type": "uint256"
        }
      ],
      "name": "chequeList",
      "outputs": [
        {
          "internalType": "string",
          "name": "qrcode",
          "type": "string"
        },
        {
          "internalType": "string",
          "name": "status",
          "type": "string"
        }
      ],
      "stateMutability": "view",
      "type": "function",
      "constant": true
    },
    {
      "inputs": [],
      "name": "userCount",
      "outputs": [
        {
          "internalType": "uint256",
          "name": "",
          "type": "uint256"
        }
      ],
      "stateMutability": "view",
      "type": "function",
      "constant": true
    },
    {
      "inputs": [
        {
          "internalType": "uint256",
          "name": "",
          "type": "uint256"
        }
      ],
      "name": "usersList",
      "outputs": [
        {
          "internalType": "string",
          "name": "username",
          "type": "string"
        },
        {
          "internalType": "string",
          "name": "email",
          "type": "string"
        },
        {
          "internalType": "string",
          "name": "password",
          "type": "string"
        },
        {
          "internalType": "string",
          "name": "phone",
          "type": "string"
        },
        {
          "internalType": "string",
          "name": "home_address",
          "type": "string"
        },
        {
          "internalType": "string",
          "name": "user_type",
          "type": "string"
        }
      ],
      "stateMutability": "view",
      "type": "function",
      "constant": true
    },
    {
      "inputs": [
        {
          "internalType": "uint256",
          "name": "i",
          "type": "uint256"
        }
      ],
      "name": "updateStatus",
      "outputs": [],
      "stateMutability": "nonpayable",
      "type": "function"
    },
    {
      "inputs": [
        {
          "internalType": "string",
          "name": "_qrcode",
          "type": "string"
        },
        {
          "internalType": "string",
          "name": "_status",
          "type": "string"
        }
      ],
      "name": "createCheque",
      "outputs": [],
      "stateMutability": "nonpayable",
      "type": "function"
    },
    {
      "inputs": [],
      "name": "getChequeCount",
      "outputs": [
        {
          "internalType": "uint256",
          "name": "",
          "type": "uint256"
        }
      ],
      "stateMutability": "view",
      "type": "function",
      "constant": true
    },
    {
      "inputs": [
        {
          "internalType": "uint256",
          "name": "i",
          "type": "uint256"
        }
      ],
      "name": "getCode",
      "outputs": [
        {
          "internalType": "string",
          "name": "",
          "type": "string"
        }
      ],
      "stateMutability": "view",
      "type": "function",
      "constant": true
    },
    {
      "inputs": [
        {
          "internalType": "uint256",
          "name": "i",
          "type": "uint256"
        }
      ],
      "name": "getStatus",
      "outputs": [
        {
          "internalType": "string",
          "name": "",
          "type": "string"
        }
      ],
      "stateMutability": "view",
      "type": "function",
      "constant": true
    },
    {
      "inputs": [],
      "name": "getCheques",
      "outputs": [
        {
          "components": [
            {
              "internalType": "string",
              "name": "qrcode",
              "type": "string"
            },
            {
              "internalType": "string",
              "name": "status",
              "type": "string"
            }
          ],
          "internalType": "struct Cheque.cheque[]",
          "name": "",
          "type": "tuple[]"
        }
      ],
      "stateMutability": "view",
      "type": "function",
      "constant": true
    },
    {
      "inputs": [
        {
          "internalType": "string",
          "name": "_username",
          "type": "string"
        },
        {
          "internalType": "string",
          "name": "_email",
          "type": "string"
        },
        {
          "internalType": "string",
          "name": "_password",
          "type": "string"
        },
        {
          "internalType": "string",
          "name": "_phone",
          "type": "string"
        },
        {
          "internalType": "string",
          "name": "_address",
          "type": "string"
        },
        {
          "internalType": "string",
          "name": "_user_type",
          "type": "string"
        }
      ],
      "name": "createUser",
      "outputs": [],
      "stateMutability": "nonpayable",
      "type": "function"
    },
    {
      "inputs": [],
      "name": "getUser",
      "outputs": [
        {
          "components": [
            {
              "internalType": "string",
              "name": "username",
              "type": "string"
            },
            {
              "internalType": "string",
              "name": "email",
              "type": "string"
            },
            {
              "internalType": "string",
              "name": "password",
              "type": "string"
            },
            {
              "internalType": "string",
              "name": "phone",
              "type": "string"
            },
            {
              "internalType": "string",
              "name": "home_address",
              "type": "string"
            },
            {
              "internalType": "string",
              "name": "user_type",
              "type": "string"
            }
          ],
          "internalType": "struct Cheque.user[]",
          "name": "",
          "type": "tuple[]"
        }
      ],
      "stateMutability": "view",
      "type": "function",
      "constant": true
    },
    {
      "inputs": [],
      "name": "getUserCount",
      "outputs": [
        {
          "internalType": "uint256",
          "name": "",
          "type": "uint256"
        }
      ],
      "stateMutability": "view",
      "type": "function",
      "constant": true
    },
    {
      "inputs": [
        {
          "internalType": "uint256",
          "name": "i",
          "type": "uint256"
        }
      ],
      "name": "getUsername",
      "outputs": [
        {
          "internalType": "string",
          "name": "",
          "type": "string"
        }
      ],
      "stateMutability": "view",
      "type": "function",
      "constant": true
    },
    {
      "inputs": [
        {
          "internalType": "uint256",
          "name": "i",
          "type": "uint256"
        }
      ],
      "name": "getPassword",
      "outputs": [
        {
          "internalType": "string",
          "name": "",
          "type": "string"
        }
      ],
      "stateMutability": "view",
      "type": "function",
      "constant": true
    },
    {
      "inputs": [
        {
          "internalType": "uint256",
          "name": "i",
          "type": "uint256"
        }
      ],
      "name": "getUsertype",
      "outputs": [
        {
          "internalType": "string",
          "name": "",
          "type": "string"
        }
      ],
      "stateMutability": "view",
      "type": "function",
      "constant": true
    },
    {
      "inputs": [
        {
          "internalType": "uint256",
          "name": "i",
          "type": "uint256"
        }
      ],
      "name": "getEmail",
      "outputs": [
        {
          "internalType": "string",
          "name": "",
          "type": "string"
        }
      ],
      "stateMutability": "view",
      "type": "function",
      "constant": true
    }
  ],
  "bytecode": "0x608060405260008055600060025534801561001957600080fd5b50612c1e806100296000396000f3fe608060405234801561001057600080fd5b506004361061010b5760003560e01c806377462b80116100a2578063a6fc5c0311610071578063a6fc5c03146102d4578063b5cb15f714610304578063d61e720114610322578063f18d18cc1461033e578063f38c6bb61461036e5761010b565b806377462b801461024c578063832880e71461026a578063972fe8bc14610288578063a0314cd3146102b85761010b565b80631e4919db116100de5780631e4919db14610198578063502aa3b5146101b65780635c622a0e146101eb5780636b40d4e71461021b5761010b565b806301dadb2b1461011057806307973ccf1461012c5780631a22c9221461014a5780631a4d82c01461017a575b600080fd5b61012a60048036038101906101259190612438565b61039e565b005b6101346104e0565b6040516101419190612586565b60405180910390f35b610164600480360381019061015f91906125cd565b6104e6565b6040516101719190612682565b60405180910390f35b610182610883565b60405161018f9190612586565b60405180910390f35b6101a0610889565b6040516101ad91906127f4565b60405180910390f35b6101d060048036038101906101cb91906125cd565b610a72565b6040516101e296959493929190612816565b60405180910390f35b610205600480360381019061020091906125cd565b610dde565b6040516102129190612682565b60405180910390f35b610235600480360381019061023091906125cd565b610f33565b6040516102439291906128a1565b60405180910390f35b610254611067565b6040516102619190612586565b60405180910390f35b610272611070565b60405161027f9190612a46565b60405180910390f35b6102a2600480360381019061029d91906125cd565b6114a2565b6040516102af9190612682565b60405180910390f35b6102d260048036038101906102cd9190612a68565b61183f565b005b6102ee60048036038101906102e991906125cd565b6118ef565b6040516102fb9190612682565b60405180910390f35b61030c611a44565b6040516103199190612586565b60405180910390f35b61033c600480360381019061033791906125cd565b611a4e565b005b610358600480360381019061035391906125cd565b611ab1565b6040516103659190612682565b60405180910390f35b610388600480360381019061038391906125cd565b611e4e565b6040516103959190612682565b60405180910390f35b6040518060c001604052808781526020018681526020018581526020018481526020018381526020018281525060036000600254815260200190815260200160002060008201518160000190805190602001906103fc9291906121eb565b5060208201518160010190805190602001906104199291906121eb565b5060408201518160020190805190602001906104369291906121eb565b5060608201518160030190805190602001906104539291906121eb565b5060808201518160040190805190602001906104709291906121eb565b5060a082015181600501908051906020019061048d9291906121eb565b509050506002547f1ed675bb725b3a8b0434b9ee956fe05e4c0e79f9dc67c3f1a717a5bb1fd88fd360405160405180910390a2600260008154809291906104d390612b0f565b9190505550505050505050565b60025481565b60606000600360008481526020019081526020016000206040518060c001604052908160008201805461051890612b87565b80601f016020809104026020016040519081016040528092919081815260200182805461054490612b87565b80156105915780601f1061056657610100808354040283529160200191610591565b820191906000526020600020905b81548152906001019060200180831161057457829003601f168201915b505050505081526020016001820180546105aa90612b87565b80601f01602080910402602001604051908101604052809291908181526020018280546105d690612b87565b80156106235780601f106105f857610100808354040283529160200191610623565b820191906000526020600020905b81548152906001019060200180831161060657829003601f168201915b5050505050815260200160028201805461063c90612b87565b80601f016020809104026020016040519081016040528092919081815260200182805461066890612b87565b80156106b55780601f1061068a576101008083540402835291602001916106b5565b820191906000526020600020905b81548152906001019060200180831161069857829003601f168201915b505050505081526020016003820180546106ce90612b87565b80601f01602080910402602001604051908101604052809291908181526020018280546106fa90612b87565b80156107475780601f1061071c57610100808354040283529160200191610747565b820191906000526020600020905b81548152906001019060200180831161072a57829003601f168201915b5050505050815260200160048201805461076090612b87565b80601f016020809104026020016040519081016040528092919081815260200182805461078c90612b87565b80156107d95780601f106107ae576101008083540402835291602001916107d9565b820191906000526020600020905b8154815290600101906020018083116107bc57829003601f168201915b505050505081526020016005820180546107f290612b87565b80601f016020809104026020016040519081016040528092919081815260200182805461081e90612b87565b801561086b5780601f106108405761010080835404028352916020019161086b565b820191906000526020600020905b81548152906001019060200180831161084e57829003601f168201915b50505050508152505090508060a00151915050919050565b60005481565b60606000805467ffffffffffffffff8111156108a8576108a761230d565b5b6040519080825280602002602001820160405280156108e157816020015b6108ce612271565b8152602001906001900390816108c65790505b50905060005b600054811015610a6a5760006001600083815260200190815260200160002090508060405180604001604052908160008201805461092490612b87565b80601f016020809104026020016040519081016040528092919081815260200182805461095090612b87565b801561099d5780601f106109725761010080835404028352916020019161099d565b820191906000526020600020905b81548152906001019060200180831161098057829003601f168201915b505050505081526020016001820180546109b690612b87565b80601f01602080910402602001604051908101604052809291908181526020018280546109e290612b87565b8015610a2f5780601f10610a0457610100808354040283529160200191610a2f565b820191906000526020600020905b815481529060010190602001808311610a1257829003601f168201915b505050505081525050838381518110610a4b57610a4a612bb9565b5b6020026020010181905250508080610a6290612b0f565b9150506108e7565b508091505090565b6003602052806000526040600020600091509050806000018054610a9590612b87565b80601f0160208091040260200160405190810160405280929190818152602001828054610ac190612b87565b8015610b0e5780601f10610ae357610100808354040283529160200191610b0e565b820191906000526020600020905b815481529060010190602001808311610af157829003601f168201915b505050505090806001018054610b2390612b87565b80601f0160208091040260200160405190810160405280929190818152602001828054610b4f90612b87565b8015610b9c5780601f10610b7157610100808354040283529160200191610b9c565b820191906000526020600020905b815481529060010190602001808311610b7f57829003601f168201915b505050505090806002018054610bb190612b87565b80601f0160208091040260200160405190810160405280929190818152602001828054610bdd90612b87565b8015610c2a5780601f10610bff57610100808354040283529160200191610c2a565b820191906000526020600020905b815481529060010190602001808311610c0d57829003601f168201915b505050505090806003018054610c3f90612b87565b80601f0160208091040260200160405190810160405280929190818152602001828054610c6b90612b87565b8015610cb85780601f10610c8d57610100808354040283529160200191610cb8565b820191906000526020600020905b815481529060010190602001808311610c9b57829003601f168201915b505050505090806004018054610ccd90612b87565b80601f0160208091040260200160405190810160405280929190818152602001828054610cf990612b87565b8015610d465780601f10610d1b57610100808354040283529160200191610d46565b820191906000526020600020905b815481529060010190602001808311610d2957829003601f168201915b505050505090806005018054610d5b90612b87565b80601f0160208091040260200160405190810160405280929190818152602001828054610d8790612b87565b8015610dd45780601f10610da957610100808354040283529160200191610dd4565b820191906000526020600020905b815481529060010190602001808311610db757829003601f168201915b5050505050905086565b6060600060016000848152602001908152602001600020604051806040016040529081600082018054610e1090612b87565b80601f0160208091040260200160405190810160405280929190818152602001828054610e3c90612b87565b8015610e895780601f10610e5e57610100808354040283529160200191610e89565b820191906000526020600020905b815481529060010190602001808311610e6c57829003601f168201915b50505050508152602001600182018054610ea290612b87565b80601f0160208091040260200160405190810160405280929190818152602001828054610ece90612b87565b8015610f1b5780601f10610ef057610100808354040283529160200191610f1b565b820191906000526020600020905b815481529060010190602001808311610efe57829003601f168201915b50505050508152505090508060200151915050919050565b6001602052806000526040600020600091509050806000018054610f5690612b87565b80601f0160208091040260200160405190810160405280929190818152602001828054610f8290612b87565b8015610fcf5780601f10610fa457610100808354040283529160200191610fcf565b820191906000526020600020905b815481529060010190602001808311610fb257829003601f168201915b505050505090806001018054610fe490612b87565b80601f016020809104026020016040519081016040528092919081815260200182805461101090612b87565b801561105d5780601f106110325761010080835404028352916020019161105d565b820191906000526020600020905b81548152906001019060200180831161104057829003601f168201915b5050505050905082565b60008054905090565b6060600060025467ffffffffffffffff8111156110905761108f61230d565b5b6040519080825280602002602001820160405280156110c957816020015b6110b661228b565b8152602001906001900390816110ae5790505b50905060005b60025481101561149a576000600360008381526020019081526020016000206040518060c001604052908160008201805461110990612b87565b80601f016020809104026020016040519081016040528092919081815260200182805461113590612b87565b80156111825780601f1061115757610100808354040283529160200191611182565b820191906000526020600020905b81548152906001019060200180831161116557829003601f168201915b5050505050815260200160018201805461119b90612b87565b80601f01602080910402602001604051908101604052809291908181526020018280546111c790612b87565b80156112145780601f106111e957610100808354040283529160200191611214565b820191906000526020600020905b8154815290600101906020018083116111f757829003601f168201915b5050505050815260200160028201805461122d90612b87565b80601f016020809104026020016040519081016040528092919081815260200182805461125990612b87565b80156112a65780601f1061127b576101008083540402835291602001916112a6565b820191906000526020600020905b81548152906001019060200180831161128957829003601f168201915b505050505081526020016003820180546112bf90612b87565b80601f01602080910402602001604051908101604052809291908181526020018280546112eb90612b87565b80156113385780601f1061130d57610100808354040283529160200191611338565b820191906000526020600020905b81548152906001019060200180831161131b57829003601f168201915b5050505050815260200160048201805461135190612b87565b80601f016020809104026020016040519081016040528092919081815260200182805461137d90612b87565b80156113ca5780601f1061139f576101008083540402835291602001916113ca565b820191906000526020600020905b8154815290600101906020018083116113ad57829003601f168201915b505050505081526020016005820180546113e390612b87565b80601f016020809104026020016040519081016040528092919081815260200182805461140f90612b87565b801561145c5780601f106114315761010080835404028352916020019161145c565b820191906000526020600020905b81548152906001019060200180831161143f57829003601f168201915b50505050508152505090508083838151811061147b5761147a612bb9565b5b602002602001018190525050808061149290612b0f565b9150506110cf565b508091505090565b60606000600360008481526020019081526020016000206040518060c00160405290816000820180546114d490612b87565b80601f016020809104026020016040519081016040528092919081815260200182805461150090612b87565b801561154d5780601f106115225761010080835404028352916020019161154d565b820191906000526020600020905b81548152906001019060200180831161153057829003601f168201915b5050505050815260200160018201805461156690612b87565b80601f016020809104026020016040519081016040528092919081815260200182805461159290612b87565b80156115df5780601f106115b4576101008083540402835291602001916115df565b820191906000526020600020905b8154815290600101906020018083116115c257829003601f168201915b505050505081526020016002820180546115f890612b87565b80601f016020809104026020016040519081016040528092919081815260200182805461162490612b87565b80156116715780601f1061164657610100808354040283529160200191611671565b820191906000526020600020905b81548152906001019060200180831161165457829003601f168201915b5050505050815260200160038201805461168a90612b87565b80601f01602080910402602001604051908101604052809291908181526020018280546116b690612b87565b80156117035780601f106116d857610100808354040283529160200191611703565b820191906000526020600020905b8154815290600101906020018083116116e657829003601f168201915b5050505050815260200160048201805461171c90612b87565b80601f016020809104026020016040519081016040528092919081815260200182805461174890612b87565b80156117955780601f1061176a57610100808354040283529160200191611795565b820191906000526020600020905b81548152906001019060200180831161177857829003601f168201915b505050505081526020016005820180546117ae90612b87565b80601f01602080910402602001604051908101604052809291908181526020018280546117da90612b87565b80156118275780601f106117fc57610100808354040283529160200191611827565b820191906000526020600020905b81548152906001019060200180831161180a57829003601f168201915b50505050508152505090508060200151915050919050565b604051806040016040528083815260200182815250600160008054815260200190815260200160002060008201518160000190805190602001906118849291906121eb565b5060208201518160010190805190602001906118a19291906121eb565b509050506000547f067893466cf54df1f1f63cbf85c3b1c0248f2639392c210239715fefe29255d160405160405180910390a26000808154809291906118e690612b0f565b91905055505050565b606060006001600084815260200190815260200160002060405180604001604052908160008201805461192190612b87565b80601f016020809104026020016040519081016040528092919081815260200182805461194d90612b87565b801561199a5780601f1061196f5761010080835404028352916020019161199a565b820191906000526020600020905b81548152906001019060200180831161197d57829003601f168201915b505050505081526020016001820180546119b390612b87565b80601f01602080910402602001604051908101604052809291908181526020018280546119df90612b87565b8015611a2c5780601f10611a0157610100808354040283529160200191611a2c565b820191906000526020600020905b815481529060010190602001808311611a0f57829003601f168201915b50505050508152505090508060000151915050919050565b6000600254905090565b6040518060400160405280600781526020017f436c656172656400000000000000000000000000000000000000000000000000815250600160008381526020019081526020016000206001019080519060200190611aad9291906121eb565b5050565b60606000600360008481526020019081526020016000206040518060c0016040529081600082018054611ae390612b87565b80601f0160208091040260200160405190810160405280929190818152602001828054611b0f90612b87565b8015611b5c5780601f10611b3157610100808354040283529160200191611b5c565b820191906000526020600020905b815481529060010190602001808311611b3f57829003601f168201915b50505050508152602001600182018054611b7590612b87565b80601f0160208091040260200160405190810160405280929190818152602001828054611ba190612b87565b8015611bee5780601f10611bc357610100808354040283529160200191611bee565b820191906000526020600020905b815481529060010190602001808311611bd157829003601f168201915b50505050508152602001600282018054611c0790612b87565b80601f0160208091040260200160405190810160405280929190818152602001828054611c3390612b87565b8015611c805780601f10611c5557610100808354040283529160200191611c80565b820191906000526020600020905b815481529060010190602001808311611c6357829003601f168201915b50505050508152602001600382018054611c9990612b87565b80601f0160208091040260200160405190810160405280929190818152602001828054611cc590612b87565b8015611d125780601f10611ce757610100808354040283529160200191611d12565b820191906000526020600020905b815481529060010190602001808311611cf557829003601f168201915b50505050508152602001600482018054611d2b90612b87565b80601f0160208091040260200160405190810160405280929190818152602001828054611d5790612b87565b8015611da45780601f10611d7957610100808354040283529160200191611da4565b820191906000526020600020905b815481529060010190602001808311611d8757829003601f168201915b50505050508152602001600582018054611dbd90612b87565b80601f0160208091040260200160405190810160405280929190818152602001828054611de990612b87565b8015611e365780601f10611e0b57610100808354040283529160200191611e36565b820191906000526020600020905b815481529060010190602001808311611e1957829003601f168201915b50505050508152505090508060000151915050919050565b60606000600360008481526020019081526020016000206040518060c0016040529081600082018054611e8090612b87565b80601f0160208091040260200160405190810160405280929190818152602001828054611eac90612b87565b8015611ef95780601f10611ece57610100808354040283529160200191611ef9565b820191906000526020600020905b815481529060010190602001808311611edc57829003601f168201915b50505050508152602001600182018054611f1290612b87565b80601f0160208091040260200160405190810160405280929190818152602001828054611f3e90612b87565b8015611f8b5780601f10611f6057610100808354040283529160200191611f8b565b820191906000526020600020905b815481529060010190602001808311611f6e57829003601f168201915b50505050508152602001600282018054611fa490612b87565b80601f0160208091040260200160405190810160405280929190818152602001828054611fd090612b87565b801561201d5780601f10611ff25761010080835404028352916020019161201d565b820191906000526020600020905b81548152906001019060200180831161200057829003601f168201915b5050505050815260200160038201805461203690612b87565b80601f016020809104026020016040519081016040528092919081815260200182805461206290612b87565b80156120af5780601f10612084576101008083540402835291602001916120af565b820191906000526020600020905b81548152906001019060200180831161209257829003601f168201915b505050505081526020016004820180546120c890612b87565b80601f01602080910402602001604051908101604052809291908181526020018280546120f490612b87565b80156121415780601f1061211657610100808354040283529160200191612141565b820191906000526020600020905b81548152906001019060200180831161212457829003601f168201915b5050505050815260200160058201805461215a90612b87565b80601f016020809104026020016040519081016040528092919081815260200182805461218690612b87565b80156121d35780601f106121a8576101008083540402835291602001916121d3565b820191906000526020600020905b8154815290600101906020018083116121b657829003601f168201915b50505050508152505090508060400151915050919050565b8280546121f790612b87565b90600052602060002090601f0160209004810192826122195760008555612260565b82601f1061223257805160ff1916838001178555612260565b82800160010185558215612260579182015b8281111561225f578251825591602001919060010190612244565b5b50905061226d91906122c1565b5090565b604051806040016040528060608152602001606081525090565b6040518060c001604052806060815260200160608152602001606081526020016060815260200160608152602001606081525090565b5b808211156122da5760008160009055506001016122c2565b5090565b6000604051905090565b600080fd5b600080fd5b600080fd5b600080fd5b6000601f19601f8301169050919050565b7f4e487b7100000000000000000000000000000000000000000000000000000000600052604160045260246000fd5b612345826122fc565b810181811067ffffffffffffffff821117156123645761236361230d565b5b80604052505050565b60006123776122de565b9050612383828261233c565b919050565b600067ffffffffffffffff8211156123a3576123a261230d565b5b6123ac826122fc565b9050602081019050919050565b82818337600083830152505050565b60006123db6123d684612388565b61236d565b9050828152602081018484840111156123f7576123f66122f7565b5b6124028482856123b9565b509392505050565b600082601f83011261241f5761241e6122f2565b5b813561242f8482602086016123c8565b91505092915050565b60008060008060008060c08789031215612455576124546122e8565b5b600087013567ffffffffffffffff811115612473576124726122ed565b5b61247f89828a0161240a565b965050602087013567ffffffffffffffff8111156124a05761249f6122ed565b5b6124ac89828a0161240a565b955050604087013567ffffffffffffffff8111156124cd576124cc6122ed565b5b6124d989828a0161240a565b945050606087013567ffffffffffffffff8111156124fa576124f96122ed565b5b61250689828a0161240a565b935050608087013567ffffffffffffffff811115612527576125266122ed565b5b61253389828a0161240a565b92505060a087013567ffffffffffffffff811115612554576125536122ed565b5b61256089828a0161240a565b9150509295509295509295565b6000819050919050565b6125808161256d565b82525050565b600060208201905061259b6000830184612577565b92915050565b6125aa8161256d565b81146125b557600080fd5b50565b6000813590506125c7816125a1565b92915050565b6000602082840312156125e3576125e26122e8565b5b60006125f1848285016125b8565b91505092915050565b600081519050919050565b600082825260208201905092915050565b60005b83811015612634578082015181840152602081019050612619565b83811115612643576000848401525b50505050565b6000612654826125fa565b61265e8185612605565b935061266e818560208601612616565b612677816122fc565b840191505092915050565b6000602082019050818103600083015261269c8184612649565b905092915050565b600081519050919050565b600082825260208201905092915050565b6000819050602082019050919050565b600082825260208201905092915050565b60006126ec826125fa565b6126f681856126d0565b9350612706818560208601612616565b61270f816122fc565b840191505092915050565b6000604083016000830151848203600086015261273782826126e1565b9150506020830151848203602086015261275182826126e1565b9150508091505092915050565b600061276a838361271a565b905092915050565b6000602082019050919050565b600061278a826126a4565b61279481856126af565b9350836020820285016127a6856126c0565b8060005b858110156127e257848403895281516127c3858261275e565b94506127ce83612772565b925060208a019950506001810190506127aa565b50829750879550505050505092915050565b6000602082019050818103600083015261280e818461277f565b905092915050565b600060c08201905081810360008301526128308189612649565b905081810360208301526128448188612649565b905081810360408301526128588187612649565b9050818103606083015261286c8186612649565b905081810360808301526128808185612649565b905081810360a08301526128948184612649565b9050979650505050505050565b600060408201905081810360008301526128bb8185612649565b905081810360208301526128cf8184612649565b90509392505050565b600081519050919050565b600082825260208201905092915050565b6000819050602082019050919050565b600060c083016000830151848203600086015261292182826126e1565b9150506020830151848203602086015261293b82826126e1565b9150506040830151848203604086015261295582826126e1565b9150506060830151848203606086015261296f82826126e1565b9150506080830151848203608086015261298982826126e1565b91505060a083015184820360a08601526129a382826126e1565b9150508091505092915050565b60006129bc8383612904565b905092915050565b6000602082019050919050565b60006129dc826128d8565b6129e681856128e3565b9350836020820285016129f8856128f4565b8060005b85811015612a345784840389528151612a1585826129b0565b9450612a20836129c4565b925060208a019950506001810190506129fc565b50829750879550505050505092915050565b60006020820190508181036000830152612a6081846129d1565b905092915050565b60008060408385031215612a7f57612a7e6122e8565b5b600083013567ffffffffffffffff811115612a9d57612a9c6122ed565b5b612aa98582860161240a565b925050602083013567ffffffffffffffff811115612aca57612ac96122ed565b5b612ad68582860161240a565b9150509250929050565b7f4e487b7100000000000000000000000000000000000000000000000000000000600052601160045260246000fd5b6000612b1a8261256d565b91507fffffffffffffffffffffffffffffffffffffffffffffffffffffffffffffffff821415612b4d57612b4c612ae0565b5b600182019050919050565b7f4e487b7100000000000000000000000000000000000000000000000000000000600052602260045260246000fd5b60006002820490506001821680612b9f57607f821691505b60208210811415612bb357612bb2612b58565b5b50919050565b7f4e487b7100000000000000000000000000000000000000000000000000000000600052603260045260246000fdfea2646970667358221220db613763aab3638dd5b91466e95aac2c3deb511a7ae22b122f224deb17a8385764736f6c634300080b0033",
  "immutableReferences": {},
  "source": "pragma solidity >= 0.8.11 <= 0.8.11;\r\npragma experimental ABIEncoderV2;\r\n//cheque solidity code\r\ncontract Cheque {\r\n\r\n    uint public chequeCount = 0; \r\n    mapping(uint => cheque) public chequeList; \r\n     struct cheque\r\n     {\r\n       string qrcode;\r\n       string status;\r\n     }\r\n \r\n   // events \r\n   event chequeCreated(uint indexed _chequeId);\r\n\r\n   function updateStatus(uint i) public { \r\n      chequeList[i].status = \"Cleared\";\r\n   }\r\n\r\n   function createCheque(string memory _qrcode, string memory _status) public {\r\n      chequeList[chequeCount] = cheque(_qrcode, _status);\r\n      emit chequeCreated(chequeCount);\r\n      chequeCount++;\r\n    }\r\n\r\n     //get cheque count\r\n    function getChequeCount()  public view returns (uint) {\r\n          return  chequeCount;\r\n    }\r\n\r\n    function getCode(uint i) public view returns (string memory) {\r\n        cheque memory chq = chequeList[i];\r\n\treturn chq.qrcode;\r\n    }\r\n\r\n    function getStatus(uint i) public view returns (string memory) {\r\n        cheque memory chq = chequeList[i];\r\n\treturn chq.status;\r\n    }\r\n\r\n     //get cheque details\r\n    function getCheques()  public view returns (cheque[] memory){\r\n       cheque[]    memory id = new cheque[](chequeCount);\r\n      for (uint i = 0; i < chequeCount; i++) {\r\n          cheque storage chq = chequeList[i];\r\n          id[i] = chq;\r\n      }\r\n      return id;\r\n    }\r\n       \r\n    uint public userCount = 0; \r\n    mapping(uint => user) public usersList; \r\n     struct user\r\n     {\r\n       string username;\r\n       string email;\r\n       string password;\r\n       string phone;\r\n       string home_address;\r\n       string user_type;\r\n     }\r\n \r\n   // events\r\n \r\n   event userCreated(uint indexed _userId);\r\n \r\n  function createUser(string memory _username, string memory _email, string memory _password, string memory _phone, string memory _address, string memory _user_type) public {\r\n      usersList[userCount] = user(_username, _email, _password, _phone, _address,  _user_type);\r\n      emit userCreated(userCount);\r\n      userCount++;\r\n    }\r\n\r\n     //get user details\r\n    function getUser()  public view returns (user[] memory){\r\n       user[]    memory id = new user[](userCount);\r\n      for (uint i = 0; i < userCount; i++) {\r\n          user memory usr = usersList[i];\r\n          id[i] = usr;\r\n      }\r\n      return (id);\r\n    }\r\n\r\n     //get user count\r\n    function getUserCount()  public view returns (uint) {\r\n          return  userCount;\r\n    }\r\n\r\n    function getUsername(uint i) public view returns (string memory) {\r\n        user memory usr = usersList[i];\r\n\treturn usr.username;\r\n    }\r\n\r\n    function getPassword(uint i) public view returns (string memory) {\r\n        user memory usr = usersList[i];\r\n\treturn usr.password;\r\n    }\r\n\r\n    function getUsertype(uint i) public view returns (string memory) {\r\n        user memory usr = usersList[i];\r\n\treturn usr.user_type;\r\n    }\r\n\r\n    function getEmail(uint i) public view returns (string memory) {\r\n        user memory usr = usersList[i];\r\n\treturn usr.email;\r\n    }\r\n}",
  "sourcePath": "C:\\Users\\Admin\\Desktop\\Blockchain\\hello-eth\\node_modules\\.bin\\contracts\\Cheque.sol",
  "compiler": {
    "name": "solc",
    "version": "0.8.11+commit.d7f03943.Emscripten.clang"
  },
  "schemaVersion": "3.4.4",
  "updatedAt": "2024-02-07T12:41:34.019Z",
  "networkType": "ethereum",
  "devdoc": {
    "kind": "dev",
    "methods": {},
    "version": 1
  },
  "userdoc": {
    "kind": "user",
    "methods": {},
    "version": 1
  }
}