{
  "contractName": "Evidence",
  "abi": [
    {
      "anonymous": false,
      "inputs": [
        {
          "indexed": true,
          "internalType": "uint256",
          "name": "_evidenceId",
          "type": "uint256"
        }
      ],
      "name": "evidenceCreated",
      "type": "event"
    },
    {
      "anonymous": false,
      "inputs": [
        {
          "indexed": true,
          "internalType": "uint256",
          "name": "_userId",
          "type": "uint256"
        }
      ],
      "name": "userCreated",
      "type": "event"
    },
    {
      "inputs": [],
      "name": "evidenceCount",
      "outputs": [
        {
          "internalType": "uint256",
          "name": "",
          "type": "uint256"
        }
      ],
      "stateMutability": "view",
      "type": "function",
      "constant": true
    },
    {
      "inputs": [
        {
          "internalType": "uint256",
          "name": "",
          "type": "uint256"
        }
      ],
      "name": "evidenceList",
      "outputs": [
        {
          "internalType": "string",
          "name": "evidence_id",
          "type": "string"
        },
        {
          "internalType": "string",
          "name": "officer_name",
          "type": "string"
        },
        {
          "internalType": "string",
          "name": "reported_crime",
          "type": "string"
        },
        {
          "internalType": "string",
          "name": "crime_details",
          "type": "string"
        },
        {
          "internalType": "string",
          "name": "evidence_details",
          "type": "string"
        },
        {
          "internalType": "string",
          "name": "crime_area",
          "type": "string"
        },
        {
          "internalType": "string",
          "name": "witness_name",
          "type": "string"
        },
        {
          "internalType": "string",
          "name": "witness_contact",
          "type": "string"
        },
        {
          "internalType": "string",
          "name": "crime_date",
          "type": "string"
        }
      ],
      "stateMutability": "view",
      "type": "function",
      "constant": true
    },
    {
      "inputs": [],
      "name": "userCount",
      "outputs": [
        {
          "internalType": "uint256",
          "name": "",
          "type": "uint256"
        }
      ],
      "stateMutability": "view",
      "type": "function",
      "constant": true
    },
    {
      "inputs": [
        {
          "internalType": "uint256",
          "name": "",
          "type": "uint256"
        }
      ],
      "name": "usersList",
      "outputs": [
        {
          "internalType": "string",
          "name": "username",
          "type": "string"
        },
        {
          "internalType": "string",
          "name": "password",
          "type": "string"
        },
        {
          "internalType": "string",
          "name": "phone",
          "type": "string"
        },
        {
          "internalType": "string",
          "name": "email",
          "type": "string"
        },
        {
          "internalType": "string",
          "name": "station_address",
          "type": "string"
        }
      ],
      "stateMutability": "view",
      "type": "function",
      "constant": true
    },
    {
      "inputs": [
        {
          "internalType": "string",
          "name": "eid",
          "type": "string"
        },
        {
          "internalType": "string",
          "name": "oname",
          "type": "string"
        },
        {
          "internalType": "string",
          "name": "crime",
          "type": "string"
        },
        {
          "internalType": "string",
          "name": "cd",
          "type": "string"
        },
        {
          "internalType": "string",
          "name": "ed",
          "type": "string"
        },
        {
          "internalType": "string",
          "name": "ca",
          "type": "string"
        },
        {
          "internalType": "string",
          "name": "wn",
          "type": "string"
        },
        {
          "internalType": "string",
          "name": "wc",
          "type": "string"
        },
        {
          "internalType": "string",
          "name": "crime_dd",
          "type": "string"
        }
      ],
      "name": "createEvidence",
      "outputs": [],
      "stateMutability": "nonpayable",
      "type": "function"
    },
    {
      "inputs": [],
      "name": "getEvidenceCount",
      "outputs": [
        {
          "internalType": "uint256",
          "name": "",
          "type": "uint256"
        }
      ],
      "stateMutability": "view",
      "type": "function",
      "constant": true
    },
    {
      "inputs": [
        {
          "internalType": "uint256",
          "name": "i",
          "type": "uint256"
        }
      ],
      "name": "getEvidenceid",
      "outputs": [
        {
          "internalType": "string",
          "name": "",
          "type": "string"
        }
      ],
      "stateMutability": "view",
      "type": "function",
      "constant": true
    },
    {
      "inputs": [
        {
          "internalType": "uint256",
          "name": "i",
          "type": "uint256"
        }
      ],
      "name": "getOfficername",
      "outputs": [
        {
          "internalType": "string",
          "name": "",
          "type": "string"
        }
      ],
      "stateMutability": "view",
      "type": "function",
      "constant": true
    },
    {
      "inputs": [
        {
          "internalType": "uint256",
          "name": "i",
          "type": "uint256"
        }
      ],
      "name": "getReportedcrime",
      "outputs": [
        {
          "internalType": "string",
          "name": "",
          "type": "string"
        }
      ],
      "stateMutability": "view",
      "type": "function",
      "constant": true
    },
    {
      "inputs": [
        {
          "internalType": "uint256",
          "name": "i",
          "type": "uint256"
        }
      ],
      "name": "getCrimedetails",
      "outputs": [
        {
          "internalType": "string",
          "name": "",
          "type": "string"
        }
      ],
      "stateMutability": "view",
      "type": "function",
      "constant": true
    },
    {
      "inputs": [
        {
          "internalType": "uint256",
          "name": "i",
          "type": "uint256"
        }
      ],
      "name": "getEvidencedetails",
      "outputs": [
        {
          "internalType": "string",
          "name": "",
          "type": "string"
        }
      ],
      "stateMutability": "view",
      "type": "function",
      "constant": true
    },
    {
      "inputs": [
        {
          "internalType": "uint256",
          "name": "i",
          "type": "uint256"
        }
      ],
      "name": "getCrimearea",
      "outputs": [
        {
          "internalType": "string",
          "name": "",
          "type": "string"
        }
      ],
      "stateMutability": "view",
      "type": "function",
      "constant": true
    },
    {
      "inputs": [
        {
          "internalType": "uint256",
          "name": "i",
          "type": "uint256"
        }
      ],
      "name": "getWitnessname",
      "outputs": [
        {
          "internalType": "string",
          "name": "",
          "type": "string"
        }
      ],
      "stateMutability": "view",
      "type": "function",
      "constant": true
    },
    {
      "inputs": [
        {
          "internalType": "uint256",
          "name": "i",
          "type": "uint256"
        }
      ],
      "name": "getCrimedate",
      "outputs": [
        {
          "internalType": "string",
          "name": "",
          "type": "string"
        }
      ],
      "stateMutability": "view",
      "type": "function",
      "constant": true
    },
    {
      "inputs": [
        {
          "internalType": "uint256",
          "name": "i",
          "type": "uint256"
        }
      ],
      "name": "getWitnesscontact",
      "outputs": [
        {
          "internalType": "string",
          "name": "",
          "type": "string"
        }
      ],
      "stateMutability": "view",
      "type": "function",
      "constant": true
    },
    {
      "inputs": [
        {
          "internalType": "string",
          "name": "_username",
          "type": "string"
        },
        {
          "internalType": "string",
          "name": "_password",
          "type": "string"
        },
        {
          "internalType": "string",
          "name": "_phone",
          "type": "string"
        },
        {
          "internalType": "string",
          "name": "em",
          "type": "string"
        },
        {
          "internalType": "string",
          "name": "sa",
          "type": "string"
        }
      ],
      "name": "createUser",
      "outputs": [],
      "stateMutability": "nonpayable",
      "type": "function"
    },
    {
      "inputs": [],
      "name": "getUserCount",
      "outputs": [
        {
          "internalType": "uint256",
          "name": "",
          "type": "uint256"
        }
      ],
      "stateMutability": "view",
      "type": "function",
      "constant": true
    },
    {
      "inputs": [
        {
          "internalType": "uint256",
          "name": "i",
          "type": "uint256"
        }
      ],
      "name": "getUsername",
      "outputs": [
        {
          "internalType": "string",
          "name": "",
          "type": "string"
        }
      ],
      "stateMutability": "view",
      "type": "function",
      "constant": true
    },
    {
      "inputs": [
        {
          "internalType": "uint256",
          "name": "i",
          "type": "uint256"
        }
      ],
      "name": "getPassword",
      "outputs": [
        {
          "internalType": "string",
          "name": "",
          "type": "string"
        }
      ],
      "stateMutability": "view",
      "type": "function",
      "constant": true
    },
    {
      "inputs": [
        {
          "internalType": "uint256",
          "name": "i",
          "type": "uint256"
        }
      ],
      "name": "getPhone",
      "outputs": [
        {
          "internalType": "string",
          "name": "",
          "type": "string"
        }
      ],
      "stateMutability": "view",
      "type": "function",
      "constant": true
    },
    {
      "inputs": [
        {
          "internalType": "uint256",
          "name": "i",
          "type": "uint256"
        }
      ],
      "name": "getEmail",
      "outputs": [
        {
          "internalType": "string",
          "name": "",
          "type": "string"
        }
      ],
      "stateMutability": "view",
      "type": "function",
      "constant": true
    },
    {
      "inputs": [
        {
          "internalType": "uint256",
          "name": "i",
          "type": "uint256"
        }
      ],
      "name": "getStationaddress",
      "outputs": [
        {
          "internalType": "string",
          "name": "",
          "type": "string"
        }
      ],
      "stateMutability": "view",
      "type": "function",
      "constant": true
    }
  ],
  "bytecode": "0x608060405260008055600060025534801561001957600080fd5b50614ff4806100296000396000f3fe608060405234801561001057600080fd5b506004361061015e576000357c010000000000000000000000000000000000000000000000000000000090048063a2ed5af0116100d5578063dae1ab0411610099578063dae1ab04146102b5578063ee0c8334146102c8578063f10b82df146102db578063f18d18cc146102ee578063f21d6c7214610301578063f38c6bb61461031457600080fd5b8063a2ed5af014610276578063adb388ea1461027f578063b455a13a14610292578063b5cb15f7146102a5578063b8d44487146102ad57600080fd5b8063502aa3b511610127578063502aa3b5146101f1578063555a708f14610215578063567b89281461022857806365c06f701461023d578063972fe8bc146102505780639fef410f1461026357600080fd5b8062b31b7114610163578063036d57dd1461019457806307973ccf146101b45780631b8f32a7146101cb5780632e7d44b5146101de575b600080fd5b610176610171366004614a83565b610327565b60405161018b99989796959493929190614ae9565b60405180910390f35b6101a76101a2366004614a83565b610835565b60405161018b9190614bae565b6101bd60025481565b60405190815260200161018b565b6101a76101d9366004614a83565b610d86565b6101a76101ec366004614a83565b6112d7565b6102046101ff366004614a83565b6115df565b60405161018b959493929190614bc8565b6101a7610223366004614a83565b6118b5565b61023b610236366004614cf1565b611e06565b005b61023b61024b366004614e56565b611fa3565b6101a761025e366004614a83565b6120ab565b6101a7610271366004614a83565b6123b3565b6101bd60005481565b6101a761028d366004614a83565b612876565b6101a76102a0366004614a83565b612d39565b6002546101bd565b6000546101bd565b6101a76102c3366004614a83565b613288565b6101a76102d6366004614a83565b613590565b6101a76102e9366004614a83565b613a53565b6101a76102fc366004614a83565b613fa5565b6101a761030f366004614a83565b61421f565b6101a7610322366004614a83565b614770565b60016020526000908152604090208054819061034290614f28565b80601f016020809104026020016040519081016040528092919081815260200182805461036e90614f28565b80156103bb5780601f10610390576101008083540402835291602001916103bb565b820191906000526020600020905b81548152906001019060200180831161039e57829003601f168201915b5050505050908060010180546103d090614f28565b80601f01602080910402602001604051908101604052809291908181526020018280546103fc90614f28565b80156104495780601f1061041e57610100808354040283529160200191610449565b820191906000526020600020905b81548152906001019060200180831161042c57829003601f168201915b50505050509080600201805461045e90614f28565b80601f016020809104026020016040519081016040528092919081815260200182805461048a90614f28565b80156104d75780601f106104ac576101008083540402835291602001916104d7565b820191906000526020600020905b8154815290600101906020018083116104ba57829003601f168201915b5050505050908060030180546104ec90614f28565b80601f016020809104026020016040519081016040528092919081815260200182805461051890614f28565b80156105655780601f1061053a57610100808354040283529160200191610565565b820191906000526020600020905b81548152906001019060200180831161054857829003601f168201915b50505050509080600401805461057a90614f28565b80601f01602080910402602001604051908101604052809291908181526020018280546105a690614f28565b80156105f35780601f106105c8576101008083540402835291602001916105f3565b820191906000526020600020905b8154815290600101906020018083116105d657829003601f168201915b50505050509080600501805461060890614f28565b80601f016020809104026020016040519081016040528092919081815260200182805461063490614f28565b80156106815780601f1061065657610100808354040283529160200191610681565b820191906000526020600020905b81548152906001019060200180831161066457829003601f168201915b50505050509080600601805461069690614f28565b80601f01602080910402602001604051908101604052809291908181526020018280546106c290614f28565b801561070f5780601f106106e45761010080835404028352916020019161070f565b820191906000526020600020905b8154815290600101906020018083116106f257829003601f168201915b50505050509080600701805461072490614f28565b80601f016020809104026020016040519081016040528092919081815260200182805461075090614f28565b801561079d5780601f106107725761010080835404028352916020019161079d565b820191906000526020600020905b81548152906001019060200180831161078057829003601f168201915b5050505050908060080180546107b290614f28565b80601f01602080910402602001604051908101604052809291908181526020018280546107de90614f28565b801561082b5780601f106108005761010080835404028352916020019161082b565b820191906000526020600020905b81548152906001019060200180831161080e57829003601f168201915b5050505050905089565b60606000600160008481526020019081526020016000206040518061012001604052908160008201805461086890614f28565b80601f016020809104026020016040519081016040528092919081815260200182805461089490614f28565b80156108e15780601f106108b6576101008083540402835291602001916108e1565b820191906000526020600020905b8154815290600101906020018083116108c457829003601f168201915b505050505081526020016001820180546108fa90614f28565b80601f016020809104026020016040519081016040528092919081815260200182805461092690614f28565b80156109735780601f1061094857610100808354040283529160200191610973565b820191906000526020600020905b81548152906001019060200180831161095657829003601f168201915b5050505050815260200160028201805461098c90614f28565b80601f01602080910402602001604051908101604052809291908181526020018280546109b890614f28565b8015610a055780601f106109da57610100808354040283529160200191610a05565b820191906000526020600020905b8154815290600101906020018083116109e857829003601f168201915b50505050508152602001600382018054610a1e90614f28565b80601f0160208091040260200160405190810160405280929190818152602001828054610a4a90614f28565b8015610a975780601f10610a6c57610100808354040283529160200191610a97565b820191906000526020600020905b815481529060010190602001808311610a7a57829003601f168201915b50505050508152602001600482018054610ab090614f28565b80601f0160208091040260200160405190810160405280929190818152602001828054610adc90614f28565b8015610b295780601f10610afe57610100808354040283529160200191610b29565b820191906000526020600020905b815481529060010190602001808311610b0c57829003601f168201915b50505050508152602001600582018054610b4290614f28565b80601f0160208091040260200160405190810160405280929190818152602001828054610b6e90614f28565b8015610bbb5780601f10610b9057610100808354040283529160200191610bbb565b820191906000526020600020905b815481529060010190602001808311610b9e57829003601f168201915b50505050508152602001600682018054610bd490614f28565b80601f0160208091040260200160405190810160405280929190818152602001828054610c0090614f28565b8015610c4d5780601f10610c2257610100808354040283529160200191610c4d565b820191906000526020600020905b815481529060010190602001808311610c3057829003601f168201915b50505050508152602001600782018054610c6690614f28565b80601f0160208091040260200160405190810160405280929190818152602001828054610c9290614f28565b8015610cdf5780601f10610cb457610100808354040283529160200191610cdf565b820191906000526020600020905b815481529060010190602001808311610cc257829003601f168201915b50505050508152602001600882018054610cf890614f28565b80601f0160208091040260200160405190810160405280929190818152602001828054610d2490614f28565b8015610d715780601f10610d4657610100808354040283529160200191610d71565b820191906000526020600020905b815481529060010190602001808311610d5457829003601f168201915b5050509190925250505060c001519392505050565b606060006001600084815260200190815260200160002060405180610120016040529081600082018054610db990614f28565b80601f0160208091040260200160405190810160405280929190818152602001828054610de590614f28565b8015610e325780601f10610e0757610100808354040283529160200191610e32565b820191906000526020600020905b815481529060010190602001808311610e1557829003601f168201915b50505050508152602001600182018054610e4b90614f28565b80601f0160208091040260200160405190810160405280929190818152602001828054610e7790614f28565b8015610ec45780601f10610e9957610100808354040283529160200191610ec4565b820191906000526020600020905b815481529060010190602001808311610ea757829003601f168201915b50505050508152602001600282018054610edd90614f28565b80601f0160208091040260200160405190810160405280929190818152602001828054610f0990614f28565b8015610f565780601f10610f2b57610100808354040283529160200191610f56565b820191906000526020600020905b815481529060010190602001808311610f3957829003601f168201915b50505050508152602001600382018054610f6f90614f28565b80601f0160208091040260200160405190810160405280929190818152602001828054610f9b90614f28565b8015610fe85780601f10610fbd57610100808354040283529160200191610fe8565b820191906000526020600020905b815481529060010190602001808311610fcb57829003601f168201915b5050505050815260200160048201805461100190614f28565b80601f016020809104026020016040519081016040528092919081815260200182805461102d90614f28565b801561107a5780601f1061104f5761010080835404028352916020019161107a565b820191906000526020600020905b81548152906001019060200180831161105d57829003601f168201915b5050505050815260200160058201805461109390614f28565b80601f01602080910402602001604051908101604052809291908181526020018280546110bf90614f28565b801561110c5780601f106110e15761010080835404028352916020019161110c565b820191906000526020600020905b8154815290600101906020018083116110ef57829003601f168201915b5050505050815260200160068201805461112590614f28565b80601f016020809104026020016040519081016040528092919081815260200182805461115190614f28565b801561119e5780601f106111735761010080835404028352916020019161119e565b820191906000526020600020905b81548152906001019060200180831161118157829003601f168201915b505050505081526020016007820180546111b790614f28565b80601f01602080910402602001604051908101604052809291908181526020018280546111e390614f28565b80156112305780601f1061120557610100808354040283529160200191611230565b820191906000526020600020905b81548152906001019060200180831161121357829003601f168201915b5050505050815260200160088201805461124990614f28565b80601f016020809104026020016040519081016040528092919081815260200182805461127590614f28565b80156112c25780601f10611297576101008083540402835291602001916112c2565b820191906000526020600020905b8154815290600101906020018083116112a557829003601f168201915b50505091909252505050602001519392505050565b60606000600360008481526020019081526020016000206040518060a001604052908160008201805461130990614f28565b80601f016020809104026020016040519081016040528092919081815260200182805461133590614f28565b80156113825780601f1061135757610100808354040283529160200191611382565b820191906000526020600020905b81548152906001019060200180831161136557829003601f168201915b5050505050815260200160018201805461139b90614f28565b80601f01602080910402602001604051908101604052809291908181526020018280546113c790614f28565b80156114145780601f106113e957610100808354040283529160200191611414565b820191906000526020600020905b8154815290600101906020018083116113f757829003601f168201915b5050505050815260200160028201805461142d90614f28565b80601f016020809104026020016040519081016040528092919081815260200182805461145990614f28565b80156114a65780601f1061147b576101008083540402835291602001916114a6565b820191906000526020600020905b81548152906001019060200180831161148957829003601f168201915b505050505081526020016003820180546114bf90614f28565b80601f01602080910402602001604051908101604052809291908181526020018280546114eb90614f28565b80156115385780601f1061150d57610100808354040283529160200191611538565b820191906000526020600020905b81548152906001019060200180831161151b57829003601f168201915b5050505050815260200160048201805461155190614f28565b80601f016020809104026020016040519081016040528092919081815260200182805461157d90614f28565b80156115ca5780601f1061159f576101008083540402835291602001916115ca565b820191906000526020600020905b8154815290600101906020018083116115ad57829003601f168201915b50505091909252505050604001519392505050565b6003602052600090815260409020805481906115fa90614f28565b80601f016020809104026020016040519081016040528092919081815260200182805461162690614f28565b80156116735780601f1061164857610100808354040283529160200191611673565b820191906000526020600020905b81548152906001019060200180831161165657829003601f168201915b50505050509080600101805461168890614f28565b80601f01602080910402602001604051908101604052809291908181526020018280546116b490614f28565b80156117015780601f106116d657610100808354040283529160200191611701565b820191906000526020600020905b8154815290600101906020018083116116e457829003601f168201915b50505050509080600201805461171690614f28565b80601f016020809104026020016040519081016040528092919081815260200182805461174290614f28565b801561178f5780601f106117645761010080835404028352916020019161178f565b820191906000526020600020905b81548152906001019060200180831161177257829003601f168201915b5050505050908060030180546117a490614f28565b80601f01602080910402602001604051908101604052809291908181526020018280546117d090614f28565b801561181d5780601f106117f25761010080835404028352916020019161181d565b820191906000526020600020905b81548152906001019060200180831161180057829003601f168201915b50505050509080600401805461183290614f28565b80601f016020809104026020016040519081016040528092919081815260200182805461185e90614f28565b80156118ab5780601f10611880576101008083540402835291602001916118ab565b820191906000526020600020905b81548152906001019060200180831161188e57829003601f168201915b5050505050905085565b6060600060016000848152602001908152602001600020604051806101200160405290816000820180546118e890614f28565b80601f016020809104026020016040519081016040528092919081815260200182805461191490614f28565b80156119615780601f1061193657610100808354040283529160200191611961565b820191906000526020600020905b81548152906001019060200180831161194457829003601f168201915b5050505050815260200160018201805461197a90614f28565b80601f01602080910402602001604051908101604052809291908181526020018280546119a690614f28565b80156119f35780601f106119c8576101008083540402835291602001916119f3565b820191906000526020600020905b8154815290600101906020018083116119d657829003601f168201915b50505050508152602001600282018054611a0c90614f28565b80601f0160208091040260200160405190810160405280929190818152602001828054611a3890614f28565b8015611a855780601f10611a5a57610100808354040283529160200191611a85565b820191906000526020600020905b815481529060010190602001808311611a6857829003601f168201915b50505050508152602001600382018054611a9e90614f28565b80601f0160208091040260200160405190810160405280929190818152602001828054611aca90614f28565b8015611b175780601f10611aec57610100808354040283529160200191611b17565b820191906000526020600020905b815481529060010190602001808311611afa57829003601f168201915b50505050508152602001600482018054611b3090614f28565b80601f0160208091040260200160405190810160405280929190818152602001828054611b5c90614f28565b8015611ba95780601f10611b7e57610100808354040283529160200191611ba9565b820191906000526020600020905b815481529060010190602001808311611b8c57829003601f168201915b50505050508152602001600582018054611bc290614f28565b80601f0160208091040260200160405190810160405280929190818152602001828054611bee90614f28565b8015611c3b5780601f10611c1057610100808354040283529160200191611c3b565b820191906000526020600020905b815481529060010190602001808311611c1e57829003601f168201915b50505050508152602001600682018054611c5490614f28565b80601f0160208091040260200160405190810160405280929190818152602001828054611c8090614f28565b8015611ccd5780601f10611ca257610100808354040283529160200191611ccd565b820191906000526020600020905b815481529060010190602001808311611cb057829003601f168201915b50505050508152602001600782018054611ce690614f28565b80601f0160208091040260200160405190810160405280929190818152602001828054611d1290614f28565b8015611d5f5780601f10611d3457610100808354040283529160200191611d5f565b820191906000526020600020905b815481529060010190602001808311611d4257829003601f168201915b50505050508152602001600882018054611d7890614f28565b80601f0160208091040260200160405190810160405280929190818152602001828054611da490614f28565b8015611df15780601f10611dc657610100808354040283529160200191611df1565b820191906000526020600020905b815481529060010190602001808311611dd457829003601f168201915b5050509190925250505060e001519392505050565b6040518061012001604052808a81526020018981526020018881526020018781526020018681526020018581526020018481526020018381526020018281525060016000805481526020019081526020016000206000820151816000019080519060200190611e769291906149ea565b506020828101518051611e8f92600185019201906149ea565b5060408201518051611eab9160028401916020909101906149ea565b5060608201518051611ec79160038401916020909101906149ea565b5060808201518051611ee39160048401916020909101906149ea565b5060a08201518051611eff9160058401916020909101906149ea565b5060c08201518051611f1b9160068401916020909101906149ea565b5060e08201518051611f379160078401916020909101906149ea565b506101008201518051611f549160088401916020909101906149ea565b5050600080546040519092507fe9be1e104e3ee33ef5f2ba4ef06a07c610202a05358b53684f13f171e96eb3af9190a2600080549080611f9383614f7c565b9190505550505050505050505050565b6040805160a08101825286815260208082018790528183018690526060820185905260808201849052600254600090815260038252929092208151805192939192611ff192849201906149ea565b50602082810151805161200a92600185019201906149ea565b50604082015180516120269160028401916020909101906149ea565b50606082015180516120429160038401916020909101906149ea565b506080820151805161205e9160048401916020909101906149ea565b50506002546040519091507f1ed675bb725b3a8b0434b9ee956fe05e4c0e79f9dc67c3f1a717a5bb1fd88fd390600090a26002805490600061209f83614f7c565b91905055505050505050565b60606000600360008481526020019081526020016000206040518060a00160405290816000820180546120dd90614f28565b80601f016020809104026020016040519081016040528092919081815260200182805461210990614f28565b80156121565780601f1061212b57610100808354040283529160200191612156565b820191906000526020600020905b81548152906001019060200180831161213957829003601f168201915b5050505050815260200160018201805461216f90614f28565b80601f016020809104026020016040519081016040528092919081815260200182805461219b90614f28565b80156121e85780601f106121bd576101008083540402835291602001916121e8565b820191906000526020600020905b8154815290600101906020018083116121cb57829003601f168201915b5050505050815260200160028201805461220190614f28565b80601f016020809104026020016040519081016040528092919081815260200182805461222d90614f28565b801561227a5780601f1061224f5761010080835404028352916020019161227a565b820191906000526020600020905b81548152906001019060200180831161225d57829003601f168201915b5050505050815260200160038201805461229390614f28565b80601f01602080910402602001604051908101604052809291908181526020018280546122bf90614f28565b801561230c5780601f106122e15761010080835404028352916020019161230c565b820191906000526020600020905b8154815290600101906020018083116122ef57829003601f168201915b5050505050815260200160048201805461232590614f28565b80601f016020809104026020016040519081016040528092919081815260200182805461235190614f28565b801561239e5780601f106123735761010080835404028352916020019161239e565b820191906000526020600020905b81548152906001019060200180831161238157829003601f168201915b50505091909252505050606001519392505050565b6060600060016000848152602001908152602001600020604051806101200160405290816000820180546123e690614f28565b80601f016020809104026020016040519081016040528092919081815260200182805461241290614f28565b801561245f5780601f106124345761010080835404028352916020019161245f565b820191906000526020600020905b81548152906001019060200180831161244257829003601f168201915b5050505050815260200160018201805461247890614f28565b80601f01602080910402602001604051908101604052809291908181526020018280546124a490614f28565b80156124f15780601f106124c6576101008083540402835291602001916124f1565b820191906000526020600020905b8154815290600101906020018083116124d457829003601f168201915b5050505050815260200160028201805461250a90614f28565b80601f016020809104026020016040519081016040528092919081815260200182805461253690614f28565b80156125835780601f1061255857610100808354040283529160200191612583565b820191906000526020600020905b81548152906001019060200180831161256657829003601f168201915b5050505050815260200160038201805461259c90614f28565b80601f01602080910402602001604051908101604052809291908181526020018280546125c890614f28565b80156126155780601f106125ea57610100808354040283529160200191612615565b820191906000526020600020905b8154815290600101906020018083116125f857829003601f168201915b5050505050815260200160048201805461262e90614f28565b80601f016020809104026020016040519081016040528092919081815260200182805461265a90614f28565b80156126a75780601f1061267c576101008083540402835291602001916126a7565b820191906000526020600020905b81548152906001019060200180831161268a57829003601f168201915b505050505081526020016005820180546126c090614f28565b80601f01602080910402602001604051908101604052809291908181526020018280546126ec90614f28565b80156127395780601f1061270e57610100808354040283529160200191612739565b820191906000526020600020905b81548152906001019060200180831161271c57829003601f168201915b5050505050815260200160068201805461275290614f28565b80601f016020809104026020016040519081016040528092919081815260200182805461277e90614f28565b80156127cb5780601f106127a0576101008083540402835291602001916127cb565b820191906000526020600020905b8154815290600101906020018083116127ae57829003601f168201915b505050505081526020016007820180546127e490614f28565b80601f016020809104026020016040519081016040528092919081815260200182805461281090614f28565b801561285d5780601f106128325761010080835404028352916020019161285d565b820191906000526020600020905b81548152906001019060200180831161284057829003601f168201915b5050505050815260200160088201805461232590614f28565b6060600060016000848152602001908152602001600020604051806101200160405290816000820180546128a990614f28565b80601f01602080910402602001604051908101604052809291908181526020018280546128d590614f28565b80156129225780601f106128f757610100808354040283529160200191612922565b820191906000526020600020905b81548152906001019060200180831161290557829003601f168201915b5050505050815260200160018201805461293b90614f28565b80601f016020809104026020016040519081016040528092919081815260200182805461296790614f28565b80156129b45780601f10612989576101008083540402835291602001916129b4565b820191906000526020600020905b81548152906001019060200180831161299757829003601f168201915b505050505081526020016002820180546129cd90614f28565b80601f01602080910402602001604051908101604052809291908181526020018280546129f990614f28565b8015612a465780601f10612a1b57610100808354040283529160200191612a46565b820191906000526020600020905b815481529060010190602001808311612a2957829003601f168201915b50505050508152602001600382018054612a5f90614f28565b80601f0160208091040260200160405190810160405280929190818152602001828054612a8b90614f28565b8015612ad85780601f10612aad57610100808354040283529160200191612ad8565b820191906000526020600020905b815481529060010190602001808311612abb57829003601f168201915b50505050508152602001600482018054612af190614f28565b80601f0160208091040260200160405190810160405280929190818152602001828054612b1d90614f28565b8015612b6a5780601f10612b3f57610100808354040283529160200191612b6a565b820191906000526020600020905b815481529060010190602001808311612b4d57829003601f168201915b50505050508152602001600582018054612b8390614f28565b80601f0160208091040260200160405190810160405280929190818152602001828054612baf90614f28565b8015612bfc5780601f10612bd157610100808354040283529160200191612bfc565b820191906000526020600020905b815481529060010190602001808311612bdf57829003601f168201915b50505050508152602001600682018054612c1590614f28565b80601f0160208091040260200160405190810160405280929190818152602001828054612c4190614f28565b8015612c8e5780601f10612c6357610100808354040283529160200191612c8e565b820191906000526020600020905b815481529060010190602001808311612c7157829003601f168201915b50505050508152602001600782018054612ca790614f28565b80601f0160208091040260200160405190810160405280929190818152602001828054612cd390614f28565b8015612d205780601f10612cf557610100808354040283529160200191612d20565b820191906000526020600020905b815481529060010190602001808311612d0357829003601f168201915b5050505050815260200160088201805461155190614f28565b606060006001600084815260200190815260200160002060405180610120016040529081600082018054612d6c90614f28565b80601f0160208091040260200160405190810160405280929190818152602001828054612d9890614f28565b8015612de55780601f10612dba57610100808354040283529160200191612de5565b820191906000526020600020905b815481529060010190602001808311612dc857829003601f168201915b50505050508152602001600182018054612dfe90614f28565b80601f0160208091040260200160405190810160405280929190818152602001828054612e2a90614f28565b8015612e775780601f10612e4c57610100808354040283529160200191612e77565b820191906000526020600020905b815481529060010190602001808311612e5a57829003601f168201915b50505050508152602001600282018054612e9090614f28565b80601f0160208091040260200160405190810160405280929190818152602001828054612ebc90614f28565b8015612f095780601f10612ede57610100808354040283529160200191612f09565b820191906000526020600020905b815481529060010190602001808311612eec57829003601f168201915b50505050508152602001600382018054612f2290614f28565b80601f0160208091040260200160405190810160405280929190818152602001828054612f4e90614f28565b8015612f9b5780601f10612f7057610100808354040283529160200191612f9b565b820191906000526020600020905b815481529060010190602001808311612f7e57829003601f168201915b50505050508152602001600482018054612fb490614f28565b80601f0160208091040260200160405190810160405280929190818152602001828054612fe090614f28565b801561302d5780601f106130025761010080835404028352916020019161302d565b820191906000526020600020905b81548152906001019060200180831161301057829003601f168201915b5050505050815260200160058201805461304690614f28565b80601f016020809104026020016040519081016040528092919081815260200182805461307290614f28565b80156130bf5780601f10613094576101008083540402835291602001916130bf565b820191906000526020600020905b8154815290600101906020018083116130a257829003601f168201915b505050505081526020016006820180546130d890614f28565b80601f016020809104026020016040519081016040528092919081815260200182805461310490614f28565b80156131515780601f1061312657610100808354040283529160200191613151565b820191906000526020600020905b81548152906001019060200180831161313457829003601f168201915b5050505050815260200160078201805461316a90614f28565b80601f016020809104026020016040519081016040528092919081815260200182805461319690614f28565b80156131e35780601f106131b8576101008083540402835291602001916131e3565b820191906000526020600020905b8154815290600101906020018083116131c657829003601f168201915b505050505081526020016008820180546131fc90614f28565b80601f016020809104026020016040519081016040528092919081815260200182805461322890614f28565b80156132755780601f1061324a57610100808354040283529160200191613275565b820191906000526020600020905b81548152906001019060200180831161325857829003601f168201915b5050509190925250509051949350505050565b60606000600360008481526020019081526020016000206040518060a00160405290816000820180546132ba90614f28565b80601f01602080910402602001604051908101604052809291908181526020018280546132e690614f28565b80156133335780601f1061330857610100808354040283529160200191613333565b820191906000526020600020905b81548152906001019060200180831161331657829003601f168201915b5050505050815260200160018201805461334c90614f28565b80601f016020809104026020016040519081016040528092919081815260200182805461337890614f28565b80156133c55780601f1061339a576101008083540402835291602001916133c5565b820191906000526020600020905b8154815290600101906020018083116133a857829003601f168201915b505050505081526020016002820180546133de90614f28565b80601f016020809104026020016040519081016040528092919081815260200182805461340a90614f28565b80156134575780601f1061342c57610100808354040283529160200191613457565b820191906000526020600020905b81548152906001019060200180831161343a57829003601f168201915b5050505050815260200160038201805461347090614f28565b80601f016020809104026020016040519081016040528092919081815260200182805461349c90614f28565b80156134e95780601f106134be576101008083540402835291602001916134e9565b820191906000526020600020905b8154815290600101906020018083116134cc57829003601f168201915b5050505050815260200160048201805461350290614f28565b80601f016020809104026020016040519081016040528092919081815260200182805461352e90614f28565b801561357b5780601f106135505761010080835404028352916020019161357b565b820191906000526020600020905b81548152906001019060200180831161355e57829003601f168201915b50505091909252505050608001519392505050565b6060600060016000848152602001908152602001600020604051806101200160405290816000820180546135c390614f28565b80601f01602080910402602001604051908101604052809291908181526020018280546135ef90614f28565b801561363c5780601f106136115761010080835404028352916020019161363c565b820191906000526020600020905b81548152906001019060200180831161361f57829003601f168201915b5050505050815260200160018201805461365590614f28565b80601f016020809104026020016040519081016040528092919081815260200182805461368190614f28565b80156136ce5780601f106136a3576101008083540402835291602001916136ce565b820191906000526020600020905b8154815290600101906020018083116136b157829003601f168201915b505050505081526020016002820180546136e790614f28565b80601f016020809104026020016040519081016040528092919081815260200182805461371390614f28565b80156137605780601f1061373557610100808354040283529160200191613760565b820191906000526020600020905b81548152906001019060200180831161374357829003601f168201915b5050505050815260200160038201805461377990614f28565b80601f01602080910402602001604051908101604052809291908181526020018280546137a590614f28565b80156137f25780601f106137c7576101008083540402835291602001916137f2565b820191906000526020600020905b8154815290600101906020018083116137d557829003601f168201915b5050505050815260200160048201805461380b90614f28565b80601f016020809104026020016040519081016040528092919081815260200182805461383790614f28565b80156138845780601f1061385957610100808354040283529160200191613884565b820191906000526020600020905b81548152906001019060200180831161386757829003601f168201915b5050505050815260200160058201805461389d90614f28565b80601f01602080910402602001604051908101604052809291908181526020018280546138c990614f28565b80156139165780601f106138eb57610100808354040283529160200191613916565b820191906000526020600020905b8154815290600101906020018083116138f957829003601f168201915b5050505050815260200160068201805461392f90614f28565b80601f016020809104026020016040519081016040528092919081815260200182805461395b90614f28565b80156139a85780601f1061397d576101008083540402835291602001916139a8565b820191906000526020600020905b81548152906001019060200180831161398b57829003601f168201915b505050505081526020016007820180546139c190614f28565b80601f01602080910402602001604051908101604052809291908181526020018280546139ed90614f28565b8015613a3a5780601f10613a0f57610100808354040283529160200191613a3a565b820191906000526020600020905b815481529060010190602001808311613a1d57829003601f168201915b5050505050815260200160088201805461350290614f28565b606060006001600084815260200190815260200160002060405180610120016040529081600082018054613a8690614f28565b80601f0160208091040260200160405190810160405280929190818152602001828054613ab290614f28565b8015613aff5780601f10613ad457610100808354040283529160200191613aff565b820191906000526020600020905b815481529060010190602001808311613ae257829003601f168201915b50505050508152602001600182018054613b1890614f28565b80601f0160208091040260200160405190810160405280929190818152602001828054613b4490614f28565b8015613b915780601f10613b6657610100808354040283529160200191613b91565b820191906000526020600020905b815481529060010190602001808311613b7457829003601f168201915b50505050508152602001600282018054613baa90614f28565b80601f0160208091040260200160405190810160405280929190818152602001828054613bd690614f28565b8015613c235780601f10613bf857610100808354040283529160200191613c23565b820191906000526020600020905b815481529060010190602001808311613c0657829003601f168201915b50505050508152602001600382018054613c3c90614f28565b80601f0160208091040260200160405190810160405280929190818152602001828054613c6890614f28565b8015613cb55780601f10613c8a57610100808354040283529160200191613cb5565b820191906000526020600020905b815481529060010190602001808311613c9857829003601f168201915b50505050508152602001600482018054613cce90614f28565b80601f0160208091040260200160405190810160405280929190818152602001828054613cfa90614f28565b8015613d475780601f10613d1c57610100808354040283529160200191613d47565b820191906000526020600020905b815481529060010190602001808311613d2a57829003601f168201915b50505050508152602001600582018054613d6090614f28565b80601f0160208091040260200160405190810160405280929190818152602001828054613d8c90614f28565b8015613dd95780601f10613dae57610100808354040283529160200191613dd9565b820191906000526020600020905b815481529060010190602001808311613dbc57829003601f168201915b50505050508152602001600682018054613df290614f28565b80601f0160208091040260200160405190810160405280929190818152602001828054613e1e90614f28565b8015613e6b5780601f10613e4057610100808354040283529160200191613e6b565b820191906000526020600020905b815481529060010190602001808311613e4e57829003601f168201915b50505050508152602001600782018054613e8490614f28565b80601f0160208091040260200160405190810160405280929190818152602001828054613eb090614f28565b8015613efd5780601f10613ed257610100808354040283529160200191613efd565b820191906000526020600020905b815481529060010190602001808311613ee057829003601f168201915b50505050508152602001600882018054613f1690614f28565b80601f0160208091040260200160405190810160405280929190818152602001828054613f4290614f28565b8015613f8f5780601f10613f6457610100808354040283529160200191613f8f565b820191906000526020600020905b815481529060010190602001808311613f7257829003601f168201915b5050509190925250505061010001519392505050565b60606000600360008481526020019081526020016000206040518060a0016040529081600082018054613fd790614f28565b80601f016020809104026020016040519081016040528092919081815260200182805461400390614f28565b80156140505780601f1061402557610100808354040283529160200191614050565b820191906000526020600020905b81548152906001019060200180831161403357829003601f168201915b5050505050815260200160018201805461406990614f28565b80601f016020809104026020016040519081016040528092919081815260200182805461409590614f28565b80156140e25780601f106140b7576101008083540402835291602001916140e2565b820191906000526020600020905b8154815290600101906020018083116140c557829003601f168201915b505050505081526020016002820180546140fb90614f28565b80601f016020809104026020016040519081016040528092919081815260200182805461412790614f28565b80156141745780601f1061414957610100808354040283529160200191614174565b820191906000526020600020905b81548152906001019060200180831161415757829003601f168201915b5050505050815260200160038201805461418d90614f28565b80601f01602080910402602001604051908101604052809291908181526020018280546141b990614f28565b80156142065780601f106141db57610100808354040283529160200191614206565b820191906000526020600020905b8154815290600101906020018083116141e957829003601f168201915b505050505081526020016004820180546131fc90614f28565b60606000600160008481526020019081526020016000206040518061012001604052908160008201805461425290614f28565b80601f016020809104026020016040519081016040528092919081815260200182805461427e90614f28565b80156142cb5780601f106142a0576101008083540402835291602001916142cb565b820191906000526020600020905b8154815290600101906020018083116142ae57829003601f168201915b505050505081526020016001820180546142e490614f28565b80601f016020809104026020016040519081016040528092919081815260200182805461431090614f28565b801561435d5780601f106143325761010080835404028352916020019161435d565b820191906000526020600020905b81548152906001019060200180831161434057829003601f168201915b5050505050815260200160028201805461437690614f28565b80601f01602080910402602001604051908101604052809291908181526020018280546143a290614f28565b80156143ef5780601f106143c4576101008083540402835291602001916143ef565b820191906000526020600020905b8154815290600101906020018083116143d257829003601f168201915b5050505050815260200160038201805461440890614f28565b80601f016020809104026020016040519081016040528092919081815260200182805461443490614f28565b80156144815780601f1061445657610100808354040283529160200191614481565b820191906000526020600020905b81548152906001019060200180831161446457829003601f168201915b5050505050815260200160048201805461449a90614f28565b80601f01602080910402602001604051908101604052809291908181526020018280546144c690614f28565b80156145135780601f106144e857610100808354040283529160200191614513565b820191906000526020600020905b8154815290600101906020018083116144f657829003601f168201915b5050505050815260200160058201805461452c90614f28565b80601f016020809104026020016040519081016040528092919081815260200182805461455890614f28565b80156145a55780601f1061457a576101008083540402835291602001916145a5565b820191906000526020600020905b81548152906001019060200180831161458857829003601f168201915b505050505081526020016006820180546145be90614f28565b80601f01602080910402602001604051908101604052809291908181526020018280546145ea90614f28565b80156146375780601f1061460c57610100808354040283529160200191614637565b820191906000526020600020905b81548152906001019060200180831161461a57829003601f168201915b5050505050815260200160078201805461465090614f28565b80601f016020809104026020016040519081016040528092919081815260200182805461467c90614f28565b80156146c95780601f1061469e576101008083540402835291602001916146c9565b820191906000526020600020905b8154815290600101906020018083116146ac57829003601f168201915b505050505081526020016008820180546146e290614f28565b80601f016020809104026020016040519081016040528092919081815260200182805461470e90614f28565b801561475b5780601f106147305761010080835404028352916020019161475b565b820191906000526020600020905b81548152906001019060200180831161473e57829003601f168201915b5050509190925250505060a001519392505050565b60606000600360008481526020019081526020016000206040518060a00160405290816000820180546147a290614f28565b80601f01602080910402602001604051908101604052809291908181526020018280546147ce90614f28565b801561481b5780601f106147f05761010080835404028352916020019161481b565b820191906000526020600020905b8154815290600101906020018083116147fe57829003601f168201915b5050505050815260200160018201805461483490614f28565b80601f016020809104026020016040519081016040528092919081815260200182805461486090614f28565b80156148ad5780601f10614882576101008083540402835291602001916148ad565b820191906000526020600020905b81548152906001019060200180831161489057829003601f168201915b505050505081526020016002820180546148c690614f28565b80601f01602080910402602001604051908101604052809291908181526020018280546148f290614f28565b801561493f5780601f106149145761010080835404028352916020019161493f565b820191906000526020600020905b81548152906001019060200180831161492257829003601f168201915b5050505050815260200160038201805461495890614f28565b80601f016020809104026020016040519081016040528092919081815260200182805461498490614f28565b80156149d15780601f106149a6576101008083540402835291602001916149d1565b820191906000526020600020905b8154815290600101906020018083116149b457829003601f168201915b5050505050815260200160048201805461124990614f28565b8280546149f690614f28565b90600052602060002090601f016020900481019282614a185760008555614a5e565b82601f10614a3157805160ff1916838001178555614a5e565b82800160010185558215614a5e579182015b82811115614a5e578251825591602001919060010190614a43565b50614a6a929150614a6e565b5090565b5b80821115614a6a5760008155600101614a6f565b600060208284031215614a9557600080fd5b5035919050565b6000815180845260005b81811015614ac257602081850181015186830182015201614aa6565b81811115614ad4576000602083870101525b50601f01601f19169290920160200192915050565b6000610120808352614afd8184018d614a9c565b90508281036020840152614b11818c614a9c565b90508281036040840152614b25818b614a9c565b90508281036060840152614b39818a614a9c565b90508281036080840152614b4d8189614a9c565b905082810360a0840152614b618188614a9c565b905082810360c0840152614b758187614a9c565b905082810360e0840152614b898186614a9c565b9050828103610100840152614b9e8185614a9c565b9c9b505050505050505050505050565b602081526000614bc16020830184614a9c565b9392505050565b60a081526000614bdb60a0830188614a9c565b8281036020840152614bed8188614a9c565b90508281036040840152614c018187614a9c565b90508281036060840152614c158186614a9c565b90508281036080840152614c298185614a9c565b98975050505050505050565b7f4e487b7100000000000000000000000000000000000000000000000000000000600052604160045260246000fd5b600082601f830112614c7557600080fd5b813567ffffffffffffffff80821115614c9057614c90614c35565b604051601f8301601f19908116603f01168101908282118183101715614cb857614cb8614c35565b81604052838152866020858801011115614cd157600080fd5b836020870160208301376000602085830101528094505050505092915050565b60008060008060008060008060006101208a8c031215614d1057600080fd5b893567ffffffffffffffff80821115614d2857600080fd5b614d348d838e01614c64565b9a5060208c0135915080821115614d4a57600080fd5b614d568d838e01614c64565b995060408c0135915080821115614d6c57600080fd5b614d788d838e01614c64565b985060608c0135915080821115614d8e57600080fd5b614d9a8d838e01614c64565b975060808c0135915080821115614db057600080fd5b614dbc8d838e01614c64565b965060a08c0135915080821115614dd257600080fd5b614dde8d838e01614c64565b955060c08c0135915080821115614df457600080fd5b614e008d838e01614c64565b945060e08c0135915080821115614e1657600080fd5b614e228d838e01614c64565b93506101008c0135915080821115614e3957600080fd5b50614e468c828d01614c64565b9150509295985092959850929598565b600080600080600060a08688031215614e6e57600080fd5b853567ffffffffffffffff80821115614e8657600080fd5b614e9289838a01614c64565b96506020880135915080821115614ea857600080fd5b614eb489838a01614c64565b95506040880135915080821115614eca57600080fd5b614ed689838a01614c64565b94506060880135915080821115614eec57600080fd5b614ef889838a01614c64565b93506080880135915080821115614f0e57600080fd5b50614f1b88828901614c64565b9150509295509295909350565b600281046001821680614f3c57607f821691505b60208210811415614f76577f4e487b7100000000000000000000000000000000000000000000000000000000600052602260045260246000fd5b50919050565b6000600019821415614fb7577f4e487b7100000000000000000000000000000000000000000000000000000000600052601160045260246000fd5b506001019056fea2646970667358221220ab58b457d9d5e22cf5da7b3b4a951e04485b07a25cd48712052fbf28e30aa70664736f6c634300080b0033",
  "immutableReferences": {},
  "source": "pragma solidity >= 0.8.11 <= 0.8.11;\r\npragma experimental ABIEncoderV2;\r\n//Evidence solidity code\r\ncontract Evidence {\r\n\r\n    uint public evidenceCount = 0; \r\n    mapping(uint => evidence) public evidenceList; \r\n     struct evidence\r\n     {\r\n       string evidence_id;\r\n       string officer_name;\r\n       string reported_crime;\r\n       string crime_details;\r\n       string evidence_details;\r\n       string crime_area;\r\n       string witness_name;\r\n       string witness_contact;\r\n       string crime_date;       \r\n     }\r\n \r\n   // events \r\n   event evidenceCreated(uint indexed _evidenceId);\r\n\r\n  \r\n   //function  to save evidence details\r\n   function createEvidence(string memory eid, string memory oname, string memory crime, string memory cd, string memory ed, string memory ca, string memory wn, string memory wc, string memory crime_dd) public {\r\n      evidenceList[evidenceCount] = evidence(eid, oname, crime, cd, ed, ca, wn, wc, crime_dd);\r\n      emit evidenceCreated(evidenceCount);\r\n      evidenceCount++;\r\n    }\r\n\r\n     //get evidence count\r\n    function getEvidenceCount()  public view returns (uint) {\r\n          return  evidenceCount;\r\n    }\r\n\r\n    function getEvidenceid(uint i) public view returns (string memory) {\r\n        evidence memory chq = evidenceList[i];\r\n\treturn chq.evidence_id;\r\n    }\r\n\r\n    function getOfficername(uint i) public view returns (string memory) {\r\n        evidence memory chq = evidenceList[i];\r\n\treturn chq.officer_name;\r\n    }      \r\n\r\n    function getReportedcrime(uint i) public view returns (string memory) {\r\n        evidence memory chq = evidenceList[i];\r\n\treturn chq.reported_crime;\r\n    }\r\n\r\n    function getCrimedetails(uint i) public view returns (string memory) {\r\n        evidence memory chq = evidenceList[i];\r\n\treturn chq.crime_details;\r\n    }     \r\n   \r\n    function getEvidencedetails(uint i) public view returns (string memory) {\r\n        evidence memory chq = evidenceList[i];\r\n\treturn chq.evidence_details;\r\n    }\r\n\r\n    function getCrimearea(uint i) public view returns (string memory) {\r\n        evidence memory chq = evidenceList[i];\r\n\treturn chq.crime_area;\r\n    }\r\n\r\n    function getWitnessname(uint i) public view returns (string memory) {\r\n        evidence memory chq = evidenceList[i];\r\n\treturn chq.witness_name;\r\n    }\r\n\r\n    function getCrimedate(uint i) public view returns (string memory) {\r\n        evidence memory chq = evidenceList[i];\r\n\treturn chq.crime_date;\r\n    }\r\n\r\n    function getWitnesscontact(uint i) public view returns (string memory) {\r\n        evidence memory chq = evidenceList[i];\r\n\treturn chq.witness_contact;\r\n    }\r\n           \r\n    uint public userCount = 0; \r\n    mapping(uint => user) public usersList; \r\n     struct user\r\n     {\r\n       string username;\r\n       string password;\r\n       string phone;\r\n       string email;\r\n       string station_address;\r\n     }\r\n \r\n   // events\r\n \r\n   event userCreated(uint indexed _userId);\r\n \r\n  function createUser(string memory _username, string memory _password, string memory _phone, string memory em, string memory sa) public {\r\n      usersList[userCount] = user(_username, _password, _phone, em, sa);\r\n      emit userCreated(userCount);\r\n      userCount++;\r\n    }\r\n\r\n    \r\n     //get user count\r\n    function getUserCount()  public view returns (uint) {\r\n          return  userCount;\r\n    }\r\n\r\n    function getUsername(uint i) public view returns (string memory) {\r\n        user memory usr = usersList[i];\r\n\treturn usr.username;\r\n    }\r\n\r\n    function getPassword(uint i) public view returns (string memory) {\r\n        user memory usr = usersList[i];\r\n\treturn usr.password;\r\n    }\r\n\r\n    function getPhone(uint i) public view returns (string memory) {\r\n        user memory usr = usersList[i];\r\n\treturn usr.phone;\r\n    }\r\n\r\n    function getEmail(uint i) public view returns (string memory) {\r\n        user memory usr = usersList[i];\r\n\treturn usr.email;\r\n    }\r\n\r\n    function getStationaddress(uint i) public view returns (string memory) {\r\n        user memory usr = usersList[i];\r\n\treturn usr.station_address;\r\n    }\r\n}",
  "sourcePath": "C:\\Users\\Admin\\Desktop\\Blockchain\\hello-eth\\node_modules\\.bin\\contracts\\Evidence.sol",
  "compiler": {
    "name": "solc",
    "version": "0.8.11+commit.d7f03943.Emscripten.clang"
  },
  "schemaVersion": "3.4.4",
  "updatedAt": "2025-01-17T05:16:17.300Z",
  "networkType": "ethereum",
  "devdoc": {
    "kind": "dev",
    "methods": {},
    "version": 1
  },
  "userdoc": {
    "kind": "user",
    "methods": {},
    "version": 1
  }
}